:020000040800F2
:10000000C088002075020008C90D0008FB0B00081D
:10001000C50D00082D080008571600080000000054
:10002000000000000000000000000000DD010008EA
:10003000DB0A00080000000021020008751000081B
:100040008F0200088F0200088F0200088F0200084C
:100050008F0200088F0200088F0200088F0200083C
:100060008F0200088F0200088F0200088F0200082C
:100070008F0200088F0200088F0200089108000814
:100080008F0200088F0200088F0200088F0200080C
:100090008F0200088F0200088F0200088F020008FC
:1000A0008F0200088F0200088F0200088F020008EC
:1000B0008F0200088F0200088F0200088F020008DC
:1000C0008F0200088F0200088F0200088F020008CC
:1000D0008F020008E51300088F0200088F02000855
:1000E0008F0200088F0200088F0200088F020008AC
:1000F0008F0200088F0200088F0200088F0200089C
:100100008F0200088F0200088F0200088F0200088B
:100110008F0200088F0200088F0200088F0200087B
:100120008F0200088F0200088F0200088F0200086B
:1001300000F002F800F042F80AA090E8000C8244B7
:100140008344AAF10107DA4501D100F037F8AFF294
:10015000090EBAE80F0013F0010F18BFFB1A43F0A5
:10016000010318475845000078450000103A24BFA5
:1001700078C878C1FAD8520724BF30C830C144BF0C
:1001800004680C607047000000230024002500264E
:10019000103A28BF78C1FBD8520728BF30C148BFEA
:1001A0000B607047642900F00581732900F05982C3
:1001B000002070471FB51FBD10B510BD00F0E7FA55
:1001C0001146FFF7F7FF01F0F3FA00F005FB03B467
:1001D000FFF7F2FF03BC01F040FA0000224B196860
:1001E0000868B0E8F00F80F30988BFF36F8F4FF015
:1001F000000080F311884EF00D0E704700000000E3
:1002000006480068006880F3088862B661B6BFF3EC
:100210004F8FBFF36F8F00DF00BF00BF08ED00E01E
:10022000EFF30980BFF36F8F0F4B1A6820E9F00FCF
:10023000106008B54FF0500080F31188BFF34F8F66
:10024000BFF36F8F03F010F84FF0000080F31188B8
:10025000BDE8084019680868B0E8F00F80F3098825
:10026000BFF36F8F704700BF70000020EFF3058071
:10027000704700000948804709480047FEE7FEE74D
:10028000FEE7FEE7FEE7FEE7FEE7FEE7FEE7FEE746
:1002900004480549054A064B7047000085100008D0
:1002A00031010008C0820020C0880020C0840020E6
:1002B000C0840020704700000FB4044910B503AAA1
:1002C000029800F0D3F910BC5DF814FB5000002038
:1002D0000FB41CB5074B06AA7B44694600900598ED
:1002E00000F095F90020694600F0A4F91CBC5DF807
:1002F00014FB0000590300002DE9F0410E460446AE
:10030000002020622046E168884730B3252805D0C8
:10031000D4E901219047206A401CF2E7E1682046B9
:1003200000278847050018D0A5F14100192802D8F8
:1003300020354FF400673246294620462760FFF7F4
:1003400031FF40B1012804D0F61D26F0070608361B
:10035000D8E7361DD6E72846DAE7206ABDE8F081FF
:1003600070B50C460546012A05D02878800600D5D0
:10037000EA69002302E0012305E05B1C934202D2FC
:10038000E05C0028F9D1A869E618C01AA861286ABB
:10039000184428622846AFF3008004E0D5E9012123
:1003A00014F8010B9047B442F8D32846AFF300800D
:1003B00070BD00002DE9F041064600241068752943
:1003C000314616A510D0AFF30080002802DA404273
:1003D00013A507E031688A0701D512A502E0490795
:1003E00004D511A5012401E0AFF3008000210A2209
:1003F00006F1240709E0B0FBF2FCB0FBF2F302FBCC
:100400001C00303078541846491C0028F3D123468C
:100410002A463046BDE8F04100F09AB800000000DE
:100420002D0000002B00000020000000032A40F2F5
:10043000308010F0030C00F0158011F8013BBCF186
:10044000020F624498BF11F801CB00F8013B38BF9E
:1004500011F8013BA2F1040298BF00F801CB38BFAC
:1004600000F8013B11F0030300F01281083AC0F0DC
:10047000088051F8043B083A51F804CBA0E8081072
:10048000F5E7121D5CBF51F8043B40F8043BAFF3A5
:100490000080D20724BF11F8013B11F801CB48BFFF
:1004A00011F8012B24BF00F8013B00F801CB48BF35
:1004B00000F8012B704702F0FF0343EA032242EAEF
:1004C000024200F019B900004FF0013C50F8042B33
:1004D00051F8043B9A4221D1A2EB0C03934313EA57
:1004E000CC1317D150F8042B51F8043B9A4215D184
:1004F000A2EB0C03934313EACC130BD150F8042B5B
:1005000051F8043B9A4209D1A2EB0C03934313EA3E
:10051000CC13DBD04FF00000704700BFD01A01BAF7
:10052000B1FA81F101F0180122FA01F0CB40C1F1DA
:100530002001DBB2C0B2C01A2CFA01F3D11A9143E8
:1005400011EAC311E6D17047704770477047704792
:100550002DE9F0470D4699469246044600F12408DD
:100560000168880604D5E06921F01001216000E0EF
:100570000120A84201DD471B00E00027A1697A198C
:1005800002EB0900081AA0612078C00602D42046B8
:10059000AFF30080002608E0D4E901211AF8060034
:1005A0009047206A401C761C20624E45F4DB207880
:1005B000C0060AD52046AFF3008006E0D4E9012149
:1005C00030209047206A401C2062381EA7F10107A6
:1005D000F4DC07E0D4E9012118F805009047206A0F
:1005E000401C2062281EA5F10105F3DC2046AFF374
:1005F00000802078000602D50220BDE8F0870120A7
:10060000FBE7000001694A1C02610878704700B5E9
:100610008FB0CDE901310021059105497944CDE93B
:10062000031011466846FFF767FE0FB000BD0000DB
:10063000E5FFFFFF0A6802F8010B0A60704710B57A
:10064000436913B1AFF3008001E0FFF789FE012099
:1006500010BD127800F124010A7000224A700122B4
:10066000EDE711684FF0FF32E9E70000074B70B586
:100670000D467B44FFF7CBFF0446284600F05CF8AC
:1006800010B14FF0FF3070BD204670BD97100000D4
:1006900010B5203AC0F00B80B1E81850203AA0E81D
:1006A0001850B1E81850A0E81850BFF4F5AF5FEA51
:1006B000027C24BFB1E81850A0E8185044BF18C904
:1006C00018C0BDE810405FEA827C24BF51F8043BAB
:1006D00040F8043B08BF7047D20728BF31F8023BFF
:1006E00048BF11F8012B28BF20F8023B48BF00F893
:1006F000012B70474FF000020429C0F0128010F067
:10070000030C00F01F80CCF1040CBCF1020F18BFE9
:1007100000F8012BA8BF20F8022BA1EB0C0100F080
:1007200011B85FEAC17C24BF00F8012B00F8012B4F
:1007300048BF00F8012B7047007B00F08000704735
:100740004FF0000200B5134694469646203922BF6A
:10075000A0E80C50A0E80C50B1F12001BFF4F7AFB5
:10076000090728BFA0E80C5048BF0CC05DF804EB97
:10077000890028BF40F8042B08BF704748BF20F805
:10078000022B11F0804F18BF00F8012B70477546FF
:1007900000F02CF8AE4605006946534620F00700ED
:1007A000854618B020B5FFF773FDBDE820404FF037
:1007B00000064FF000074FF000084FF0000B21F04B
:1007C0000701AC46ACE8C009ACE8C009ACE8C00918
:1007D000ACE8C0098D46704710B50446AFF3008001
:1007E0002046BDE81040FFF7F2BC0000004870470B
:1007F0006082002008B50121082000F039FB4FF489
:100800008070ADF8000010208DF8030003208DF8F3
:1008100002006946044800F061F94FF48071024813
:1008200000F0E7F908BD0000000C014000BFFEE742
:1008300070B50446FF250EA12046FFF745FE08B916
:10084000012513E00CA12046FFF73EFE08B9022562
:100850000CE00BA12046FFF737FE08B9032505E0A1
:1008600009A12046FFF730FE00B90425284670BDD7
:100870004C4544304F4E00004C4544304F464600F6
:10088000424545504F4E0000424545504F464600B8
:1008900010B5012240F225510C4800F046FE01211E
:1008A0000A4800F003FE4FF4003000F0D7F858B1CA
:1008B00001200749087007490748006803F0B2F8AB
:1008C0004FF4003000F00AF810BD0000003801407D
:1008D0005C0000206C0000202C00002000F0805103
:1008E00011B10349086001E0024948607047000007
:1008F000040402400000024021B1026842F00102FB
:10090000026004E002684FF6FE731A40026070470E
:1009100001684FF6FE7211400160002101604160E4
:100920008160C1604B49884208D14A490839496809
:1009300041F00F01474A083A51608AE045491431B5
:10094000884208D143490839496841F0F001414AD9
:10095000083A51607DE03F492831884208D13D493D
:100960000839496841F470613A4A083A516070E0C8
:1009700038493C31884208D136490839496841F440
:100980007041344A083A516063E03249503188423C
:1009900008D130490839496841F470212D4A083A94
:1009A000516056E02B496431884208D12949083901
:1009B000496841F47001274A083A516049E02549E5
:1009C0007831884208D123490839496841F070617B
:1009D000204A083A51603CE01F49884206D1011F75
:1009E000096841F00F01021F116032E01A49143109
:1009F000884208D11849091F096841F0F001164AD8
:100A0000121F116025E014492831884208D112498B
:100A1000091F096841F470610F4A121F116018E044
:100A20000D493C31884208D10B49091F096841F43E
:100A30007041094A121F11600BE00749503188428A
:100A400007D10549091F096841F47021024A121FA4
:100A5000116070470800024008040240014600206F
:100A6000002201F0805313B1054B1A6801E0054BD9
:100A70001A6802EA01030BB1012000E00020704770
:100A800000040240000002401AB103680B430360F7
:100A900002E003688B430360704710B500220268D0
:100AA00047F6F0739A430C6A8B6823430C6923431F
:100AB0004C6923438C692343CC6923434C6A234309
:100AC0008C6A23431A430260CB6843600B688360DF
:100AD0004B68C36010BD4160704770472DE9F0411D
:100AE000024600250026002000230024002791F85C
:100AF00003C00CF00F0591F803C00CF0100CBCF112
:100B0000000F03D091F802C04CEA050591F800C02F
:100B1000BCF1000F31D0146800202BE04FF0010C25
:100B20000CFA00F3B1F800C00CEA03069E4220D193
:100B300083004FF00F0C0CFA03F7BC4305FA03FCDB
:100B40004CEA040491F803C0BCF1280F06D14FF021
:100B5000010C0CFA00FCC2F814C00AE091F803C0C2
:100B6000BCF1480F05D14FF0010C0CFA00FCC2F8A3
:100B700010C0401C0828D1D31460B1F800C0BCF1EB
:100B8000FF0F34DD546800202EE000F1080C4FF018
:100B9000010808FA0CF3B1F800C00CEA03069E4203
:100BA00021D183004FF00F0C0CFA03F7BC4305FA78
:100BB00003FC4CEA040491F803C0BCF1280F05D1F2
:100BC00000F1080C08FA0CF8C2F8148091F803C080
:100BD000BCF1480F07D100F1080C4FF0010808FAEA
:100BE0000CF8C2F81080401C0828CED35460BDE831
:100BF000F081416170470161704700BFFEE700006E
:100C00004CF6CC40014908607047000000300040BD
:100C100010B500F013F810BD70B505460C4645F24E
:100C2000555000F01FF8284600F010F8204600F05C
:100C300013F800F003F8FFF7E3FF70BD4AF6AA20AF
:100C400001490860704700000030004001494860D9
:100C50007047000000300040014988607047000084
:100C6000003000400149086070470000003000403B
:100C700008B50121442000F0FBF81C20ADF800006D
:100C800048208DF8030069460648FFF727FF01203A
:100C9000ADF8000028208DF8030069460248FFF7F0
:100CA0001DFF08BD001801400008014008B50121E2
:100CB000482000F0DDF82020ADF8000010208DF86D
:100CC000030003208DF8020069460948FFF706FF7C
:100CD00020210748FFF78FFF2020ADF8000069466C
:100CE0000448FFF7FBFE20210248FFF784FF08BD00
:100CF000000C014000180140024600200AE0135C8D
:100D0000602B05DD135C7B2B02DA135C203B135454
:100D1000431CD8B28842F2DB704700002DE9F04155
:100D200007460D4616461C460121084600F090F87D
:100D30003846FFF7EDFD164804801648056046600A
:100D40000020144988600846C460002008618020A3
:100D5000486100208861C86108624FF48050486291
:100D6000002088623846FFF798FE01200A49C870C3
:100D700005204870002088700F200870084600F099
:100D800025F8012202210548FFF77EFEBDE8F0812B
:100D900068000020D40100206400002058000240B8
:100DA00010B5044600212046FFF7A6FD044801883F
:100DB0002046FFF790FE01212046FFF79DFD10BD64
:100DC0006800002000BFFEE77047000070B50021FA
:100DD00000230F22C47804B3154C246804F4E064A3
:100DE000C4F5E064210AC1F10403CA40447804FA5E
:100DF00003F184781440214309010E4C0678A15573
:100E0000047804F01F050124AC4005786D11AD0095
:100E100005F1E025C5F8004109E0047804F01F055C
:100E20000124AC40044D0678761145F8264070BD8B
:100E30000CED00E000E400E080E100E00249014345
:100E4000024A1160704700000000FA050CED00E056
:100E500029B1064A52690243044B5A6104E0034A2D
:100E600052698243014B5A617047000000100240F2
:100E700029B1064A92690243044B9A6104E0034A8D
:100E800092698243014B9A61704700000010024052
:100E900030B500210022002400232D4D6D6805F09F
:100EA0000C0121B1042905D0082923D105E0294DE1
:100EB000056022E0274D05601FE0254D6D6805F4B3
:100EC0007012234D6D6805F48034022505EB9242C3
:100ED0001CB9214D554305600BE01D4D6D6805F4AF
:100EE00000351DB11C4D5543056002E0194D5543B9
:100EF000056002E0174D056000BF00BF144D6D682E
:100F000005F0F0010909154D6B5C0568DD40456091
:100F10000F4D6D6805F4E061090A104D6B5C456882
:100F2000DD4085600A4D6D6805F46051C90A0B4DBE
:100F30006B5C4568DD40C560054D6D6805F440415A
:100F4000890B074D6B5CC568B5FBF3F5056130BDDA
:100F50000010024000127A0000093D003C00002011
:100F60004C00002010B500F001F810BD0CB50020B9
:100F7000019000903348006840F4803031490860A7
:100F800000BF3048006800F4003000900198401C19
:100F90000190009818B90198B0F5A06FF1D12948D7
:100FA000006800F4003010B10120009001E0002042
:100FB00000900098012843D12348006840F01000B9
:100FC000214908600846006820F0030008600846D0
:100FD000006840F0020008601A48406819494860FB
:100FE0000846406848600846406840F480604860B1
:100FF0000846406820F47C1048600846406840F489
:10100000E81048600846006840F08070086000BF43
:101010000C48006800F000700028F9D009484068CA
:1010200020F00300074948600846406840F002008D
:10103000486000BF0348406800F00C000828F9D160
:101040000CBD00000010024000200240042808D11E
:101050004FF0E021096941F004014FF0E0221161F5
:1010600007E04FF0E021096921F004014FF0E02290
:101070001161704710B502F07FFF012801D002F026
:1010800017FB10BD10B51348006840F0010011496E
:10109000086008464068104908400E494860084604
:1010A00000680E4908400B4908600846006820F4B3
:1010B000802008600846406820F4FE0048604FF435
:1010C0001F008860FFF74EFF4FF000600449086082
:1010D00010BD0000001002400000FFF8FFFFF6FE08
:1010E00008ED00E008B500250026002478E03D4822
:1010F000006800285AD04FF0FF313A48006802F0EB
:10110000D3FD0646012E51D137A0FFF7D5F8384858
:10111000006838490988445C4FF6FF7000EA0424EF
:101120003348016833480088401C085C204484B27E
:10113000304801882E48006800F091FAA04225D17D
:1011400000212B4800682B4A1288815428480268E5
:1011500028480088401C115425480068007826491A
:1011600008702448028822480168491C002000F0C9
:1011700043FC009021A00099FFF79EF800231A4637
:1011800019462148006802F063FB0FE01948018806
:101190001748006800F063FA074639461BA0FFF7BE
:1011A0008BF813480168002000F0E8FB164800683F
:1011B000B0B14FF0FF311448006802F075FD0546EC
:1011C000012D0DD118A0FFF777F800235A1E6946AC
:1011D0001748006802F03CFB0020009900F0CEFBAD
:1011E00085E700002C0000206372630D0A000000F8
:1011F000540000205A000020340000203132333ADD
:101200002025730D0A00000028000020435243D01F
:10121000A3D1E9C2EBCEDED0A7A3AC435243D3A601
:10122000CEAA25640D0A0000C8EBB6D30D0A000053
:101230002400002008B5FF250026002767E04FF0B6
:10124000FF3269463248006802F076FC0746012FFB
:1012500003D030A0FFF730F859E034A0FFF72CF8A6
:10126000344800784006060E711C002000F098FB00
:10127000044631A12046009AFFF72AF80020A05525
:1012800031462046FFF738FD2046FFF7D1FA0546E4
:10129000FF2D30D02948017829A0FFF70DF821460D
:1012A0002BA0FFF709F825480078012802D0022872
:1012B00020D10EE0012D02D0022D08D103E0002044
:1012C0002649086003E001202449086000BF00BFF0
:1012D00010E0032D02D0042D0AD104E001201F49A3
:1012E0000C31086004E000201C490C31086000BF8C
:1012F00000BF00BF07E01A48016815A0FEF7DCFF39
:1013000018A0FEF7D9FF2146002000F037FB96E732
:1013100024000020B6D3C1D0444D415F717565757E
:1013200065B6C1C8A1CAA7B0DC0D0A00B3F6B6D332
:101330000D0A00005A000020257300003400002030
:10134000C3FCC1EEC0E0D0CDCEAA3A25640D0A00A0
:10135000C3FCC1EECEAA3A25730D0A009481214246
:1013600054000020CEDED0A7B5C4C3FCC1EEA3ACB0
:10137000C7EBD6D8D0C2CAE4C8EB21210D0A0000C1
:1013800038B5054601F0C4FF1149086008460068F9
:1013900018B910A0FEF790FF38BD18E00F4800689C
:1013A00001231A46194600900948006802F032F8F5
:1013B000044604F0010008B1FFF72AFC0848007851
:1013C000012804D101210248006801F0AFFFE5E7E0
:1013D00030000020CAA7B0DC0D0A00003800002051
:1013E0005C00002010B540F22551294800F073F848
:1013F00000284CD0264800F029F9C4B225482649D7
:10140000097844542448007848B9A52C01D000201C
:1014100002E021480078401C1F49087037E01E4850
:10142000007801280CD15A2C01D0002002E01A4883
:101430000078401C1849087000201849087026E000
:1014400015480078022822D1154804800022402146
:101450000F4800F037F812480088801C83B211480A
:101460000B49091D02681048FFF758FC0122402172
:10147000074800F027F80C48FFF792FC002240F2E2
:101480002551034800F051F800200349087010BDB1
:10149000003801400C0100205D0000205C000020AD
:1014A0005A000020540000205800024021B18289D7
:1014B00042F40052828104E082894DF6FF731A40A3
:1014C000828170471AB1838A0B43838202E0838A48
:1014D0008B438382704770B50246002400230025A9
:1014E000002040F66A16B14200D100BFC1F3421598
:1014F00001F01F03012606FA03F3012D02D196899C
:10150000334006E0022D02D1168A334001E0968A6C
:1015100033400C12012606FA04F41688344013B145
:101520000CB1012000E0002070BDF0B5034600249E
:1015300000260025002040F66A17B94200D100BFFE
:101540001846C1F3421401F01F06012707FA06F5F9
:10155000012C01D10C3004E0022C01D1103000E04C
:1015600014301AB107682F43076002E00768AF43E1
:101570000760F0BD2DE9F04786B005460E46002411
:10158000A24600BFA1460027B08900B100BF2F4688
:101590002C8A4CF6FF700440F08804432C82AC89FE
:1015A0004EF6F3100440B08831890843718908432E
:1015B0000443AC81AC8A4FF6FF400440B089044339
:1015C000AC8201A8FFF764FC1F48874202D1DDF816
:1015D00010A001E0DDF80CA0A88900F4004040B1A3
:1015E0000AEBCA0000EB0A1031684900B0FBF1F8C1
:1015F00007E00AEBCA0000EB0A1031688900B0FB73
:10160000F1F86420B8FBF0F004012009642101FB2B
:101610001089A88900F4004040B1322000EBC900D5
:10162000B0FBF1F000F00700044308E0322000EBCB
:1016300009106421B0FBF1F000F00F0004432C818D
:1016400006B0BDE8F08700000038014001468888F8
:10165000C0F30800704700BFFEE700BF7047F0B559
:1016600004460D46FF21FF2200231BE0E05C4140C1
:10167000002614E0174608465210491007F0010CE6
:10168000BCF1000F01D041F0800100F0010CBCF171
:10169000000F03D082F0A00281F00101761C082E19
:1016A000E8DB5B1CAB42E1DB01EB022080B2F0BD6A
:1016B00010B50420FFF7CAFC104800681049B0FBC1
:1016C000F1F0104908700D4800680D49B0FBF1F4C5
:1016D0004FF47A70444301200B4908804FF0E0201A
:1016E000006940F002004FF0E021086108464461C3
:1016F000006940F00100086110BD000000000020FA
:1017000040420F005E0000206000002000BF054A3C
:10171000128802F04002002AF9D0C2B2014B1B1D10
:101720001A807047003801401CB5002204210120B6
:1017300001F0D8FF0C4908600846006818B10BA0FA
:10174000FEF7BAFD02E00FA0FEF7B6FD1348012137
:1017500000238022CDE9001011A1144802F0DCFB27
:1017600001F020FD1CBD000024000020B6D3C1D034
:10177000444D415F7175657565B4B4BDA8B3C9B911
:10178000A60D0A00B6D3C1D0444D415F7175657591
:1017900065B4B4BDA8CAA7B0DC0D0A0014000020CF
:1017A00073746172745F7461736B00005127000879
:1017B00010B54FF44070FFF741FBFFF779FF4FF48E
:1017C000E13001F01BF8FFF771FAFFF751FAFFF76C
:1017D00011F840F635410420FFF71EFAFFF7A4FF89
:1017E000002010BD2DE9F04104460E461548005D6D
:1017F00038B9144818380168204688470120BDE8E8
:10180000F081114850F82400B04219D90F4850F81F
:101810002400B6FBF0F10B48083850F8240030F8EB
:101820001120002508E000230648083850F824005D
:101830004F1920F817306D1C9542F4DB0020DEE7CD
:101840000220DCE708010020B4460008AC4600088E
:1018500010B504460C4951F824104A000B4951F8C0
:101860002400002100F0BDF8094951F8242007495F
:10187000083951F82400002100F0B3F80121034891
:101880000830015510BD0000A446000800010020EA
:10189000B44600082DE9F04704460F460025A94646
:1018A0002348005D20B9224818380168204688473F
:1018B0001FB94FF0FF30BDE8F0871E4850F82400F4
:1018C000B7FBF0F61B4850F82400B7FBF0F100FB23
:1018D000117000B1761C184850F82400451E22E013
:1018E0001348083850F8240030F8150010B909F1F1
:1018F000010901E04FF00009B14513D14FF0000894
:1019000009E00B48083850F8240005EB080220F8DD
:10191000126008F10108B045F3D3064850F82400DE
:101920006843C8E76D1E002DDADA4FF0FF30C2E7DA
:1019300008010020AC460008A446000810B5014686
:101940000023002207E00B4850F8210030F8120075
:1019500000B15B1C521C084850F821009042F2D89C
:1019600064205843044C54F82140B0FBF4F0C0B25A
:1019700010BD000000010020A446000870B5054617
:101980000C4604B970BD054850F82500261A3146AA
:101990002846FFF727FF00BFF4E70000F80000200B
:1019A00070B504460E4631462046FFF773FF0546E4
:1019B000681C08B9002070BD024850F82400284473
:1019C000F9E70000F800002070B503460C4603E07C
:1019D00014F8015B03F8015B151EA2F10102F7D1B7
:1019E00070BD30B5034601E003F8011B141EA2F1DF
:1019F0000102F9D130BD00002DE9F04104460F4647
:101A0000164631462046FFF745FF0546681C10B9CB
:101A10000020BDE8F081084951F8241048193246E9
:101A20003946FFF7D1FF39462046FFF7A7FF0248A6
:101A300050F824002844ECE7F80000202DE9F0419C
:101A400005460E462948076800202949096881F89B
:101A5000590027480068001D00F02AFF50B92448AB
:101A6000006890F82C1001208840224909688143C1
:101A700020480160681CD8B9D6B11F4948681C4984
:101A8000096888601A4982680968CA601849096843
:101A9000091D8268516016490968091D8160164A4E
:101AA000134909684A6111460968491C11601AE026
:101AB0007C190F4800684460BC4207D20C4801689A
:101AC000091D0E48006800F025FF0CE00848016879
:101AD000091D0B48006800F01DFF0A480068844299
:101AE00001D208480460BDE8F081000084000020B5
:101AF00070000020880000201005002078000020E1
:101B000074000020A000002010B5044600F028FF5B
:101B100031480068401C304908603048006840B9CE
:101B20002E4804600846006801280DD100F018FA1C
:101B30000AE02B48006838B928480068C06AE16AA2
:101B4000884201D82548046026480068401C254981
:101B5000086008460068606494F82C1001208840F2
:101B600021490968084320490860E16A01EB8101C5
:101B70001E4A02EB81014868A0608268E260211D74
:101B8000826851608160E16A01EB8101174A02EBD2
:101B900081026261E16A01EB8101144A52F821106D
:101BA000491CE26A02EB8202104B43F8221000F05B
:101BB0001BFF0B48006868B108480068C06AE16A0A
:101BC000884207D24FF0805009490860BFF34F8F19
:101BD000BFF36F8F10BD0000800000207000002058
:101BE0008C0000209C000020880000204002002083
:101BF00004ED00E010B500F0B3FE10480068D0B965
:101C00000F4800F077FE0F4800F074FE0C480E49B4
:101C100008600C480D49086000221021052001F0E1
:101C200061FD064908600846006820B108A1034824
:101C3000006800F0DBFF00F0D7FE10BDB800002008
:101C40002405002038050020B0000020B40000204A
:101C5000546D72510000000010B516E000F080FED7
:101C60000C48C068C468201D00F022FE0A480068C5
:101C7000401E0949086009480068401E074908607D
:101C800000F0B2FE204600F05FF80448006800282B
:101C9000E4D110BDFC040020800000207C00002066
:101CA00070B504460D46206C70B1216CE0680144AB
:101CB000E160D4E90210884201D32168E16028463E
:101CC000226CE168FEF7B2FB70BD2DE9F0410446DD
:101CD0000F4615464FF00008A66B206C48B92068E7
:101CE00000282CD1A06802F047FA80460020A060AE
:101CF00025E07DB93946226C6068FEF797FB216CC0
:101D0000606808446060D4E90101884217D3206804
:101D1000606014E03946226CE068FEF787FB216CB6
:101D2000E068411AE1602168E068884203D2216CD2
:101D3000A068411AE160022D01D106B1761E701C27
:101D4000A0634046BDE8F08110B50446206B00F06A
:101D500083FE204600F080FE10BD01464A6A22B193
:101D60000A6B1268C2F1200000E0002070470000FA
:101D70000146084A126812680AB9012200E00022EE
:101D80000A600A6822B9034A1268D268106800E043
:101D900000207047B000002030B54FF420531748A2
:101DA00000F007042CB1C01D20F00700134C041BE9
:101DB0001B1B0246124C22600024114D6C60D0188F
:101DC000083820F007000F4C206000240D4D2D68CE
:101DD0006C600C4D2D682C601146441A4C60094C07
:101DE00024680C60084D4C682C60084D4C682C60D1
:101DF0004FF00044064D2C6030BD00004C05002023
:101E0000D0000020D8000020E0000020DC000020EE
:101E1000EC00002000BFFFF71FFF06480068012804
:101E2000F9D94FF0805004490860BFF34F8FBFF3DA
:101E30006F8FF0E74002002004ED00E02DE9F04153
:101E400006460D4617469846069C0DB9246000E0EC
:101E50002760E66325640121204601F083FC84F8B5
:101E600050800020A064BDE8F08100002DE9F05F03
:101E700082460F4690469B460A9E0C9C4FEA88017C
:101E8000A522206BFEF717FBA8F10100216B01EBE7
:101E9000800929F0070909F0070008B9012000E0CE
:101EA000002028B94FF4587224A129A0FEF704FAA3
:101EB00087B1002507E0795D04F134004155785D74
:101EC00000B902E06D1C102DF5D300BF00214320A6
:101ED000015502E0002084F83400202E01D20120B8
:101EE00000E0002028B940F2973214A118A0FEF7B4
:101EF000E3F9202E00D31F26E662E6640020206569
:101F0000201D00F004FD04F1180000F000FD246124
:101F1000C6F12000A06164620020606584F858006A
:101F200084F859005A465146484600F0FFFB2060AD
:101F30000B9808B10B980460BDE8F09F2E2E5C460C
:101F400072656552544F535C7461736B732E6300FA
:101F50004572726F723A2025732C2025640D0A0099
:101F600010B5002407E004EB84010F4A02EB810066
:101F700000F0C0FC641C202CF5D30C4800F0BAFC27
:101F80000B4800F0B7FC0B4800F0B4FC0A4800F026
:101F9000B1FC0A4800F0AEFC044809490860044856
:101FA0000849086010BD000040020020C004002065
:101FB000D4040020E8040020FC04002010050020C8
:101FC000740000207800002010B50146164800E09B
:101FD000006803688B42FBD30246436813448B427C
:101FE00004D143684C682344436001460A464B6869
:101FF00013440468A34211D10C4C03682468A34223
:1020000008D04B680468646823444B6003681B680D
:102010000B6005E0054B1B680B6001E003680B607B
:10202000884200D0016010BDD0000020D800002000
:102030002DE9F04104460D4616461F464FF00008B4
:1020400065602461B5420CD8F01BA169884202D3B7
:102050004FF0010811E0211D0948006800F05AFC0A
:102060000BE0BE4204D2BD4202D34FF0010804E0AF
:10207000211D0448006800F04DFC4046BDE8F08199
:10208000B4000020B000002070B5054600F068FCE8
:10209000A86B08B9012400E0002400F0A5FC20464C
:1020A00070BD70B5054600F05BFCA86BE96B88421B
:1020B00001D1012400E0002400F096FC204670BD10
:1020C000F1B50098846C00262CB940F6D73220A1D7
:1020D00024A0FEF7F1F8A06BE16B884201D2012049
:1020E00000E0002028B940F6D83219A11DA0FEF763
:1020F000E3F8A06BE16B884227D294F945500022A7
:1021000069462046FFF7E1FD0646681C60B9606A33
:1021100008B9012000E00020B0B904F1240002F069
:1021200021F988B101260FE07F2D01D0012000E0C8
:10213000002028B940F6F83205A10AA0FEF7BCF845
:10214000681C40B284F8450000BF3046F8BD00006E
:102150002E2E5C4672656552544F535C71756575E1
:10216000652E63004572726F723A2025732C20250C
:10217000640D0A0070B505460E460E480068C0683A
:10218000C468201D00F094FB94F8280000F00400BF
:1021900028B132462946204600F0F8F805E094F8C8
:1021A000280000F0FE0084F828002046216A8847B5
:1021B00070BD0000B000002070B586B08AE00298C3
:1021C00000280CDA03AE2EB940F2063247A14DA02A
:1021D000FEF772F8D6E90020B168904700BF029878
:1021E000002877DB049C606908B9012000E000202A
:1021F00010B9201D00F05CFB01A800F0F3F80546C3
:1022000002980A2864D2DFE800F06305072E3653EF
:1022100006082F3700BF00BF00BF94F8280040F029
:10222000010084F828000398A269811803462A4611
:102230002046FFF7FDFEA8B194F8280000F0040046
:1022400038B10398A26981182A46204600F09EF80A
:1022500005E094F8280000F0FE0084F828002046ED
:10226000216A884735E000BF94F8280000F0FE009E
:1022700084F828002DE000BF94F8280040F0010009
:1022800084F828000398A061A06908B1012000E04B
:10229000002028B940F2593214A11AA0FEF70CF818
:1022A000A06941192B462A462046FFF7C1FE10E0DF
:1022B00094F8280000F0020018B9204600F0CCFB8A
:1022C00005E094F8280000F0FE0084F8280000E003
:1022D00000BF00BF002202A90E48006801F02CFCDC
:1022E00000287FF46CAF06B070BD00002E2E5C4657
:1022F00072656552544F535C74696D6572732E63D9
:10230000000000004572726F723A2025732C202560
:10231000640D0A00B8000020F8B505460C4600F030
:102320009BFF684600F05EF80646009820BB44B963
:10233000B54206D802F0B4F831462846FFF71AFF36
:102340001CE03CB10E480068006808B9012000E0BC
:1023500000200446A91B22460A48006800F084FCBD
:1023600002F09EF850B94FF0805007490860BFF363
:102370004F8FBFF36F8F01E002F092F8F8BD0000BD
:10238000B4000020B800002004ED00E070B5044661
:102390000D46164604E0A06905442046216A884798
:1023A000A06941192B4632462046FFF741FE00281E
:1023B000F1D170BD09480068006808B9012000E04B
:1023C000002020B14FF0FF300549086005E00348C8
:1023D0000068C06800680249086070477400002007
:1023E000A000002070B5044601F0D6FD0546074860
:1023F0000068854204D200F00BF80120206001E063
:102400000020206001480560284670BDC000002003
:1024100070B508E00D480068C06804684FF0FF31EF
:102420002046FFF7A7FE09480068006808B90120A8
:1024300000E000200028EDD004480568044800684A
:10244000024908600248056070BD0000B00000202D
:10245000B40000200B480068401C08B9012000E0CF
:10246000002020B9CE2208A112A0FDF725FF00BF51
:10247000502080F31188BFF34F8FBFF36F8F00BFE1
:1024800000BFFEE7C40000202E2E5C467265655238
:10249000544F535C706F727461626C655C52564449
:1024A000535C41524D5F434D335C706F72742E63C9
:1024B000000000004572726F723A2025732C2025AF
:1024C000640D0A0010B50346002022B903EA010496
:1024D00034B1012004E003EA01048C4200D1012060
:1024E00010BD08B500BF6846FFF742FC0446204611
:1024F0000099FFF711FFFFF75FFEF4E770B50446A0
:1025000000F02EFA94F9455019E0A06C30B1204645
:10251000FFF7D6FD88B100F063FC0EE0606A08B9F1
:10252000012000E0002038B904F1240001F01AFF76
:1025300018B100F055FC00E003E0681E45B2002D24
:10254000E3DC00BFFF2084F8450000F04DFA00F006
:1025500007FA94F9445010E0206908B9012000E01E
:10256000002048B904F1100001F0FCFE08B100F0B1
:1025700037FC681E45B200E001E0002DECDC00BF36
:10258000FF2084F8440000F02FFA70BD2DE9F041DF
:1025900004464FF0000800F05FFE4848006808B9A4
:1025A000FFF7FAFB464800682040002873D114B3B7
:1025B00004F10800A0421ED9083404F00700D8B185
:1025C00004F00700C0F108002044A04211D904F033
:1025D0000700C0F10800044404F0070008B9012016
:1025E00000E0002040B99C2236A140A0FDF764FE27
:1025F00002E0002400E00024002C4CD03F4800689A
:10260000844248D83E4E3046056801E02E462D688B
:102610006868A04202D228680028F7D127480068DD
:10262000854238D0306800F1080828683060686852
:10263000001B102813D92F1907F0070008B9012033
:1026400000E0002020B9CF221EA128A0FDF734FE13
:102650006868001B78606C603846FFF7B5FC274956
:1026600068680968081A254908600846006825490D
:102670000968884203D2214800682249086010494D
:102680006868096808436860002028601E48006880
:10269000401C1D49086001F003FF08F0070008B95D
:1026A000012000E0002028B94FF4887205A10FA096
:1026B000FDF702FE4046BDE8F0810000D800002092
:1026C000EC0000202E2E5C4672656552544F535C20
:1026D000706F727461626C655C4D656D4D616E67A3
:1026E0005C686561705F342E630000004572726F34
:1026F000723A2025732C2025640D0A00DC0000208E
:10270000D0000020E0000020E4000020064800681F
:1027100030B10549096801F15000096D491C01609B
:10272000014800687047000070000020001F4FF053
:1027300080730360001F21F001030360001F034B3F
:1027400003601438026020387047000055240008E8
:102750001CB5044600F004F903220021012000F01A
:10276000C1FF1749086003220021012000F0BAFFD1
:102770001449086014480A2100238022CDE9001082
:1027800012A1144801F0C8FB13480B2100234FF499
:102790008072CDE9001011A1124801F0BDFB124872
:1027A000022100238022CDE9001010A1114801F080
:1027B000B3FB1148006800F07DFA00F015F91CBD6C
:1027C000280000202C000020180000205441534B0A
:1027D00031000000E51000081C0000205441534B5C
:1027E0003200000035120008200000205441534BF5
:1027F00033000000811300081400002010B586B0DB
:102800000446012144F20400FEF732FB4FF400704D
:10281000ADF8140003208DF8160018208DF817006D
:1028200005A92048FEF75AF94FF48060ADF814006E
:1028300004208DF8170005A91A48FEF74FF9252046
:102840008DF8000006208DF8010000208DF80200B0
:1028500001208DF803006846FEF7B8FA01940020C5
:10286000ADF80800ADF80A00ADF80C00ADF81000A6
:102870000C20ADF80E0001A90B48FEF77BFE0122EB
:1028800040F225510848FEF750FE01210648FEF7A8
:102890000DFE4FF481710020FFF782F803490860B4
:1028A00006B010BD0008014000380140540000206F
:1028B00001460A69D1E901309860D1E90103586005
:1028C0005068884201D18868506000200861106813
:1028D000401E1060106870470549096888690449FE
:1028E0000968C96AC1F12001014A12689161704703
:1028F0007000002000F1080141604FF0FF3181605D
:1029000000F10801C16001610021016070470021F0
:102910000161704710B502460B685C1C0CB9106968
:1029200007E002F1080000E04068446824689C4227
:10293000FAD944684C604C68A160886041600A61C3
:102940001468641C146010BD42684A6093688B6010
:10295000936859609160086103685B1C036070476D
:1029600010B500BF502080F31188BFF34F8FBFF325
:102970006F8F00BF0B480068401C0A49086008467A
:10298000006801280DD108480068C0B208B90120CC
:1029900000E0002028B940F2731204A10EA0FDF758
:1029A0008BFC10BDC400002004ED00E02E2E5C4620
:1029B00072656552544F535C706F727461626C65DE
:1029C0005C525644535C41524D5F434D335C706FD3
:1029D00072742E63000000004572726F723A2025F7
:1029E000732C2025640D0A0010B50B48006828B927
:1029F0004FF4BD7209A114A0FDF75EFC0648006803
:102A0000401E054908600846006820B9002080F390
:102A1000118800BF00BF10BDC40000202E2E5C46F0
:102A200072656552544F535C706F727461626C656D
:102A30005C525644535C41524D5F434D335C706F62
:102A400072742E63000000004572726F723A202586
:102A5000732C2025640D0A0070B506463546002EFD
:102A60003AD0083D2C461D4960680968084008B105
:102A7000012000E0002028B94FF4927218A122A092
:102A8000FDF71AFC206808B9012000E0002028B9F1
:102A900040F2251212A11CA0FDF70EFC0F49606840
:102AA00009680840C0B12068B0B90C49606809687D
:102AB0008843606000F0D0FB1749606809680844EB
:102AC000154908602046FFF77FFA14480068401C4B
:102AD0001249086001F0E4FC70BD0000EC00002029
:102AE0002E2E5C4672656552544F535C706F727443
:102AF00061626C655C4D656D4D616E675C686561BA
:102B0000705F342E630000004572726F723A2025A8
:102B1000732C2025640D0A00DC000020E800002052
:102B200000204FF0E0210861886107480068C00874
:102B30004FF47A71B0FBF1F0401E4FF0E021486194
:102B400003200861704700000000002070B5FDF709
:102B50008DFB0546102D11D305F1E02090F8F043D0
:102B600010480078844201DB012000E0002028B9F1
:102B700040F2BB220CA117A0FDF79EFB194800688C
:102B800000F4E06018490968884201D8012000E09B
:102B9000002028B940F2CB2203A10EA0FDF78CFB48
:102BA00070BD0000C80000202E2E5C467265655284
:102BB000544F535C706F727461626C655C52564422
:102BC000535C41524D5F434D335C706F72742E63A2
:102BD000000000004572726F723A2025732C202588
:102BE000640D0A000CED00E0CC0000202DE9F0415E
:102BF00005460F4600262DB940F6CB2210A115A0A0
:102C0000FDF75AFBBFB1002412E0164800EBC400E8
:102C10004068A84203D1134800EBC4060AE036B965
:102C2000104850F8340010B90E4800EBC406641C7C
:102C3000082CEAD300BF0EB137607560BDE8F081A3
:102C40002E2E5C4672656552544F535C71756575E6
:102C5000652E63004572726F723A2025732C202511
:102C6000640D0A00000200202DE9F04105460E46E1
:102C700017462C46FFF774FE94F94400401C10B927
:102C8000002084F8440094F94500401C10B900204D
:102C900084F84500FFF7A8FEA06B28B93A463146F4
:102CA00004F1240000F0CCF82046FFF727FCBDE833
:102CB000F081000070B50546FFF752FE15B92F48A8
:102CC000006800E028460446201DFFF7F1FD78B9B2
:102CD000E06A00EB80002A4951F8200040B994F8DE
:102CE0002C1001208840274909688143254801604C
:102CF000A06A18B104F11800FFF7DAFD2248006855
:102D0000401C214908601D480068844209D1211DEA
:102D10001E48FFF719FE1E480068401C1C49086049
:102D200006E01C480068401E1A490860FFF742FB95
:102D3000FFF75AFE11480068844202D02046FFF790
:102D400003F815480068C0B10C480068844214D1EB
:102D50001248006808B9012000E0002028B940F2BC
:102D6000DC420FA113A0FDF7A7FA4FF080501549E0
:102D70000860BFF34F8FBFF36F8F70BD70000020EE
:102D800040020020880000209C000020FC0400205D
:102D90007C000020800000208C000020AC0000207F
:102DA0002E2E5C4672656552544F535C7461736B92
:102DB000732E63004572726F723A2025732C2025A2
:102DC000640D0A0004ED00E003490968016003494D
:102DD00009684160704700009800002084000020CE
:102DE00001200149086070479400002070B5044636
:102DF0000D462CB940F61C4207A10CA0FDF75CFA69
:102E00000E48016818312046FFF784FD012128464D
:102E1000FEF714FE70BD00002E2E5C4672656552F2
:102E2000544F535C7461736B732E63004572726F01
:102E3000723A2025732C2025640D0A0070000020B2
:102E400070B504460E4615462CB940F6524211A103
:102E500015A0FDF731FA606817490968C86116497D
:102E6000826809680A6214490968183182685160E9
:102E700011490968183181600F4909688C6221681D
:102E8000491C21600DB14FF0FF3629463046FEF750
:102E9000D5FD70BD2E2E5C4672656552544F535C55
:102EA0007461736B732E63004572726F723A2025E2
:102EB000732C2025640D0A007000002070B50446B4
:102EC0000D4616462CB940F6364219A11DA0FDF755
:102ED000F3F92048006808B1012000E0002028B97B
:102EE00040F63A4212A117A0FDF7E6F945F000407E
:102EF000194909688861606817490968C8611649F5
:102F0000826809680A621449096818318268516048
:102F100011490968183181600F4909688C6221687C
:102F2000491C216001213046FEF788FD70BD00007C
:102F30002E2E5C4672656552544F535C7461736B00
:102F4000732E63004572726F723A2025732C202510
:102F5000640D0A00AC000020700000202DE9F0474D
:102F600006460F4634464FF00109002E70D0206D02
:102F700028B941F29F0237A13BA0FDF79DF9E06C13
:102F8000B84201D23D4600E0E56CE06AA8425FD05D
:102F9000206D01285CD138480068844201D00120AE
:102FA00000E0002028B941F2BA022AA12EA0FDF7C4
:102FB00083F9D4F82C80E562A06900F0004010B9D4
:102FC000C5F12000A06108EB88012C4A02EB8101C9
:102FD0006069884201D1012000E00020C0B3201DBB
:102FE000FFF766FC40B994F82C1001208840244972
:102FF000096881432248016094F82C100120884020
:103000001F49096808431E490860E16A01EB810114
:103010001A4A02EB81014868A0608268E260211DC3
:10302000826851608160E16A01EB8101134A02EB21
:1030300081026261E16A01EB8101104A52F82110BC
:10304000491CE26A02EB82020C4B43F8221000BFDB
:10305000BDE8F0872E2E5C4672656552544F535C76
:103060007461736B732E63004572726F723A202520
:10307000732C2025640D0A007000002040020020FF
:103080008800002070B505460E463848006808B133
:10309000012000E0002028B940F6BA4234A139A04E
:1030A000FDF70AF946F000402860EC682CB940F6BC
:1030B000C2422FA133A0FDF7FFF82869D5E901210D
:1030C0009160D5E9011251604168A94201D1A96816
:1030D0004160002129610168491E01606069D4E9ED
:1030E00002128A60D4E902214A60211D42688A42A4
:1030F00001D1E1684160002262610168491E0160FE
:1031000094F82C100120884022490968084321497D
:103110000860E16A01EB81011F4A02EB8101486806
:10312000A0608268E260211D826851608160E16A6E
:1031300001EB8101184A02EB81026261E16A01EB55
:103140008101154A52F82110491CE26A02EB820201
:10315000114B43F822101149E06A0968C96A884294
:1031600002D901200E49086070BD0000AC000020AB
:103170002E2E5C4672656552544F535C7461736BBE
:10318000732E63004572726F723A2025732C2025CE
:10319000640D0A008800002040020020700000201A
:1031A000940000201CB51B4800210B468022CDE96D
:1031B000001019A11A4800F0AFFE0446012C02D1FC
:1031C00001F036FA0446012C15D100BF502080F3DF
:1031D0001188BFF34F8FBFF36F8F00BF4FF0FF30E9
:1031E0001049086001201049086000200F4908605C
:1031F00000F0BEF90BE0601C08B1012000E00020E7
:1032000028B94FF404620AA10EA0FDF755F8114841
:1032100000681CBDA400002049444C45000000008B
:10322000151E0008A00000208C0000208400002053
:103230002E2E5C4672656552544F535C7461736BFD
:10324000732E63004572726F723A2025732C20250D
:10325000640D0A00A800002002480068401C0149D3
:1032600008607047AC00002010B51B48006818B11A
:1032700001201A4908602DE000201849086018480C
:103280000068B0FA80F0C0F11F0404EB8400154917
:1032900051F8200008B1012000E0002028B940F6D4
:1032A000024211A115A0FDF707F804EB84010D4AB5
:1032B00002EB810041684968416000F10801426801
:1032C0008A4202D14168496841604168C9680F4A31
:1032D000116000BF10BD0000AC0000209400002071
:1032E00088000020400200202E2E5C467265655248
:1032F000544F535C7461736B732E63004572726F2D
:10330000723A2025732C2025640D0A0070000020DD
:1033100010B51C20FFF73AF9044624B100202060C4
:10332000201DFFF7E7FA204610BD00002DE9FE4FF3
:1033300007468846002001903C4600902FB940F295
:10334000212229A12FA0FCF7B7FF08F07F4008B980
:10335000012000E0002028B940F2222222A129A069
:10336000FCF7AAFF04F1040909F108000290FFF735
:1033700073FFD9F80C60206840EA0800206026E05E
:10338000D6F804B035680020009005F07F4A25F09B
:103390007F450AF0806028B92068284040B10120AC
:1033A000009005E020682840A84201D1012000904B
:1033B000009858B10AF0807010B10198284301902C
:1033C000206840F000713046FFF75CFE5E460298D0
:1033D0008642D5D1206801998843206001F060F8C9
:1033E0002068BDE8FE8F00002E2E5C467265655297
:1033F000544F535C6576656E745F67726F7570735A
:103400002E6300004572726F723A2025732C2025BE
:10341000640D0A002DE9FF4F83B081460D46174623
:10342000DDF840804C464FF0000A00200190B9F1D1
:10343000000F05D14FF4A57241A148A0FCF73CFF55
:1034400005F07F4008B9012000E0002028B940F2D3
:103450004B123BA141A0FCF72FFF0DB1012000E072
:10346000002028B94FF4A67235A13CA0FCF724FF38
:1034700000F082FD10B9B8F1000F01D1012000E089
:10348000002028B940F24F122DA134A0FCF714FF00
:10349000FFF7E2FE206800902946069A0098FFF7A1
:1034A00011F80290029838B1009E4FF00008C7B1A1
:1034B0002068A843206014E0B8F1000F03D1009EFB
:1034C000012001900DE00FB14AF0807A069808B112
:1034D0004AF0806A45EA0A014246201DFFF7EEFCE9
:1034E000002600F0DDFF8346B8F1000F23D0BBF1CA
:1034F000000F07D14FF080501C490860BFF34F8F79
:10350000BFF36F8FFFF7E8F9064606F0007080B949
:10351000FFF726FA266829463046069AFEF7D2FFBC
:1035200018B117B12068A843206001200190FFF76F
:103530005BFA26F07F46304607B0BDE8F08F00000A
:103540002E2E5C4672656552544F535C6576656EEF
:10355000745F67726F7570732E6300004572726FCF
:10356000723A2025732C2025640D0A0004ED00E03A
:103570001CB53B4C204600780190FF202146087086
:103580000846007800909DF8000000F0F0009DF8DB
:103590000010884201D1012000E0002028B940F24B
:1035A0001F1230A13AA0FCF787FE9DF8000000F042
:1035B00050003B49087007203A49086009E0394843
:1035C0000068401E374908609DF800004006000E64
:1035D00000909DF8000000F080008028EFD0314876
:1035E0000068C0F10700042801D1012000E000209C
:1035F00028B940F233121BA125A0FCF75DFE294833
:103600000068C0F10700042801D1012000E000207B
:1036100028B94FF49E7213A11DA0FCF74DFE21485E
:10362000006800021F4908600846008800F4E06056
:1036300008600B49019808701B48006840F470004E
:10364000194908600846006840F070400860FFF7BC
:1036500067FA002015490860FCF7D2FD00201CBD68
:1036600000E400E02E2E5C4672656552544F535CB8
:10367000706F727461626C655C525644535C415267
:103680004D5F434D335C706F72742E630000000019
:103690004572726F723A2025732C2025640D0A0042
:1036A000C8000020CC00002020ED00E0C400002075
:1036B00010B500BF502080F31188BFF34F8FBFF3C8
:1036C0006F8F00BF00F06EFC18B14FF080500449BE
:1036D000086000BF002080F3118800BF10BD00000B
:1036E00004ED00E02DE9F84305460E461746002498
:1036F000E5B1601EB0FBF5F0B04217D305FB06F054
:1037000010F1550F12D805FB06F909F15400FEF728
:103710003DFF04468CB1A04608F154083B464246A2
:10372000314628460094FEF789FB06E02CB94FF499
:10373000E37203A107A0FCF7BFFD2046BDE8F883B4
:103740002E2E5C4672656552544F535C71756575DB
:10375000652E63004572726F723A2025732C202506
:10376000640D0A002DE9F04105460E4601272C465E
:103770002CB94FF488722CA130A0FCF79DFD002CD1
:1037800042D0E06B00283FD04FF0FF31E06BB1FB3F
:10379000F0F0216C884237D3FFF7E2F8D4E90F123A
:1037A000206801FB0200A0600020A0632068606028
:1037B000E06B401E226C216800FB0211E160FF20DB
:1037C00084F8440084F845009EB9206908B90120B6
:1037D00000E00020A8B904F1100000F0C3FD80B1A2
:1037E0004FF0805019490860BFF34F8FBFF36F8FC0
:1037F00007E004F11000FFF77DF804F12400FFF763
:1038000079F8FFF7F1F800E000270FB1012000E0A0
:10381000002028B940F2451203A108A0FCF74CFD96
:103820003846BDE8F08100002E2E5C467265655278
:10383000544F535C71756575652E63004572726FE8
:10384000723A2025732C2025640D0A0004ED00E057
:103850002DE9FF4782B0064688461D464FF0000915
:1038600034462CB940F22E3264A169A0FCF724FD45
:10387000B8F1000F01D1206C08B9012000E0002050
:1038800028B940F22F325DA161A0FCF715FD022D91
:1038900002D1E06B012801D1012000E0002028B90D
:1038A0004FF44C7255A15AA0FCF706FD00F064FBE2
:1038B00008B9049808B9012000E0002028B940F2B6
:1038C00033324EA152A0FCF7F7FC00BFFFF748F8D7
:1038D000A06BE16B884201D3022D3ED1D4F838A011
:1038E0002A4641462046FEF7F0F90746A06C88B10B
:1038F000022D02D1BAF1000F29D12046FEF7E0FBDC
:1039000028B34FF0805046490860BFF34F8FBFF394
:103910006F8F1CE0606A08B9012000E0002068B9E0
:1039200004F1240000F01EFD88B14FF080503C49A6
:103930000860BFF34F8FBFF36F8F08E03FB14FF0C8
:10394000805037490860BFF34F8FBFF36F8FFFF789
:103950004BF8012006B0BDE8F087049818B9FFF7CE
:1039600043F80020F6E7B9F1000F04D16846FFF7ED
:103970002BFA4FF00109FFF737F8FFF76DFCFEF760
:10398000EFFF94F94400401C10B9002084F8440073
:1039900094F94500401C10B9002084F84500FFF759
:1039A00023F804A9684600F059FAF8B92046FEF752
:1039B00078FBA8B104F110000499FFF717FA20462C
:1039C000FEF79CFD00F06CFD00287FF47FAF4FF008
:1039D000805013490860BFF34F8FBFF36F8F75E7B7
:1039E0002046FEF78BFD00F05BFD6FE72046FEF7FB
:1039F00085FD00F055FD0020ACE700002E2E5C4652
:103A000072656552544F535C71756575652E630020
:103A10004572726F723A2025732C2025640D0A00BE
:103A200004ED00E02DE9F04707460D463C462CB971
:103A300040F2AD4237A13CA0FCF73EFC206C08B937
:103A4000012000E0002028B940F2B14231A136A0A7
:103A5000FCF732FC206808B9A06808B9012000E032
:103A6000002028B940F2B6422AA12FA0FCF724FC7E
:103A7000FFF76CF800BF5021EFF3118081F311883C
:103A8000BFF34F8FBFF36F8F00BF0646D4F838A047
:103A9000E06B504535D994F945900AF10100A063D7
:103AA00009F10100C0B9A06C38B12046FEF708FB4F
:103AB00020B31DB30120286020E0606A08B901200E
:103AC00000E00020D0B904F1240000F04BFCA8B1C4
:103AD000A5B10120286011E0B9F17F0F01D00120CC
:103AE00000E0002028B940F235520AA10EA0FCF7F0
:103AF000E3FB09F1010040B284F845004FF00108F2
:103B000001E04FF0000800BF86F3118800BF404677
:103B1000BDE8F0872E2E5C4672656552544F535CAB
:103B200071756575652E63004572726F723A202556
:103B3000732C2025640D0A002DE9F74183B005465A
:103B40000E464FF000082C462CB940F251524CA1C1
:103B500050A0FCF7B1FB0EB9206C08B9012000E0C1
:103B6000002028B940F2555245A14AA0FCF7A4FB19
:103B700000F002FA08B9059808B9012000E0002019
:103B800028B940F25A523EA142A0FCF795FB00BF73
:103B9000FEF7E6FEA76BF7B131462046FEF780F848
:103BA000781EA063206908B9012000E0002060B9F8
:103BB00004F1100000F0D6FB38B14FF080503949C5
:103BC0000860BFF34F8FBFF36F8FFEF70DFF01202B
:103BD00006B0BDE8F081059818B9FEF705FF002092
:103BE000F6E7B8F1000F04D101A8FFF7EDF84FF0A8
:103BF0000108FEF7F9FEFFF72FFBFEF7B1FE94F97F
:103C00004400401C10B9002084F8440094F9450099
:103C1000401C10B9002084F84500FEF7E5FE05A918
:103C200001A800F01BF9F0B92046FEF72DFAA0B16B
:103C300004F124000599FFF7D9F82046FEF75EFC51
:103C400000F02EFC0028A3D14FF0805015490860E9
:103C5000BFF34F8FBFF36F8F9AE72046FEF74EFCFE
:103C600000F01EFC94E72046FEF748FC00F018FC2C
:103C70002046FEF709FA00288AD00020A8E70000B5
:103C80002E2E5C4672656552544F535C7175657596
:103C9000652E63004572726F723A2025732C2025C1
:103CA000640D0A0004ED00E02DE9F34182B0054601
:103CB0004FF000082C4600262CB940F2E3525DA1DB
:103CC00061A0FCF7F9FA206C08B9012000E000209F
:103CD00028B940F2E75257A15BA0FCF7EDFA00F0DB
:103CE0004BF908B9039808B9012000E0002028B971
:103CF00040F2EC524FA154A0FCF7DEFA00BFFEF7F1
:103D00002FFEA76BFFB1781EA063206810B9FEF7E5
:103D1000FDFCA060206908B9012000E0002060B926
:103D200004F1100000F01EFB38B14FF080504A49FA
:103D30000860BFF34F8FBFF36F8FFEF755FE012072
:103D400004B0BDE8F081039870B90EB9012000E01D
:103D5000002028B940F2326236A13BA0FCF7ACFA51
:103D6000FEF742FE0020EBE7B8F1000F04D16846F1
:103D7000FFF72AF84FF00108FEF736FEFFF76CFA5E
:103D8000FEF7EEFD94F94400401C10B9002084F8C1
:103D9000440094F94500401C10B9002084F8450007
:103DA000FEF722FE03A9684600F058F840BB204603
:103DB000FEF76AF9F0B1206838B9FEF7D1FDA068C6
:103DC00000F05AFA0646FEF70FFE04F124000399AC
:103DD000FFF70CF82046FEF791FB00F061FB00288E
:103DE0008DD14FF080501C490860BFF34F8FBFF357
:103DF0006F8F84E72046FEF781FB00F051FB7EE7E2
:103E00002046FEF77BFB00F04BFB2046FEF73CF91B
:103E10000028EED05EB1FEF7A3FD2046FDF79DFF22
:103E200007463946A068FFF799F8FEF7DDFD002048
:103E300086E700002E2E5C4672656552544F535C37
:103E400071756575652E63004572726F723A202533
:103E5000732C2025640D0A0004ED00E070B50646C1
:103E60000C462EB940F6FD421FA124A0FCF724FA0F
:103E70002CB940F6FE421CA120A0FCF71DFAFEF76B
:103E80006FFD224802687068131A2148006890F894
:103E9000590030B100201E49096881F859000125F8
:103EA0001EE02068401C08B9002519E01949306857
:103EB0000968884206D07068904203D80125002026
:103EC00020600DE02068984207D92068C01A206061
:103ED0003046FEF779FF002502E000202060012532
:103EE000FEF782FD284670BD2E2E5C467265655237
:103EF000544F535C7461736B732E63004572726F21
:103F0000723A2025732C2025640D0A0084000020BD
:103F100070000020980000202DE9FF4F85B08046FA
:103F200089461746DDE912ABB800FEF72FFB0646BF
:103F300056B15C20FEF72AFB04460CB1266304E070
:103F40003046FEF789FD00E000247CB10020CDE979
:103F500000ABCDE902403A4649464046089BFDF792
:103F600085FF2046FDF7D0FD012501E04FF0FF352C
:103F7000284609B0BDE8F08F0549096809B9012054
:103F800005E00449096809B9022000E000207047F3
:103F90008C000020AC000020014908687047000038
:103FA000840000202DE9F0414FF000085E480068D1
:103FB00000287DD15D480068451C5C480560EDB96E
:103FC0005B480068006808B9012000E0002028B9BB
:103FD00040F6C72257A15CA0FCF76EF95448076869
:103FE0005D480068524908605B4807605B480068AC
:103FF000401C5A490860FEF7DDF900BF58480068C8
:10400000854277D300BF4A480068006808B901209C
:1040100000E0002020B14FF0FF305149086068E017
:1040200043480068C068C4686668B54202D24C481C
:1040300006605EE06069D4E902128A60D4E9022178
:104040004A60211D42688A4201D1E1684160002234
:1040500062610168491E0160A06A98B1A06AD4E952
:1040600007128A60D4E907214A6004F11801426806
:104070008A4201D1216A41600022A2620168491E80
:10408000016000BF94F82C10012088403549096870
:10409000084334490860E16A01EB8101324A02EBCE
:1040A00081014868A0608268E260211D826800E0AA
:1040B00032E051608160E16A01EB81012A4A02EB42
:1040C00081026261E16A01EB8101274A52F8211005
:1040D000491CE26A02EB8202234B43F82210234977
:1040E000E06A0968C96A88428DD34FF001088AE7FF
:1040F00000E000BF1D480068C06A00EB80001A495C
:1041000051F82000012801D94FF001081848006833
:1041100008B14FF0010804E016480068401C15493A
:1041200008604046BDE8F081AC000020840000201B
:10413000740000202E2E5C4672656552544F535C0D
:104140007461736B732E63004572726F723A20252F
:10415000732C2025640D0A007800002098000020B0
:10416000A0000020880000204002002070000020F5
:10417000940000209000002070B505462C460026D3
:10418000002D5ED030480068844201D1012000E05B
:10419000002028B941F24F022CA131A0FCF78CF885
:1041A000206D28B941F2500228A12DA0FCF784F817
:1041B000206D401E2065E16CE06A884241D0206D90
:1041C00000283ED1201DFEF773FB40B994F82C1057
:1041D0000120884026490968814325480160E06C38
:1041E000E062E06AC0F12000A06194F82C10012088
:1041F00088401F49096808431D490860E16A01EBCE
:1042000081011C4A02EB81014868A0608268E2607B
:10421000211D826851608160E16A01EB8101154ACC
:1042200002EB81026261E16A01EB8101114A52F8FD
:104230002110491CE26A02EB82020E4B43F8221065
:104240000126304670BD0000700000202E2E5C4616
:1042500072656552544F535C7461736B732E6300C7
:104260004572726F723A2025732C2025640D0A0066
:10427000880000204002002070B505462C4600262C
:10428000002D67D03449E06A0968C96A88425AD269
:10429000A06900F0004028B92F480068C06AC0F14A
:1042A0002000A061E16A01EB81012C4A02EB81014F
:1042B0006069884201D1012000E00020E0B3201DA8
:1042C000FEF7F6FA40B994F82C10012088402449F2
:1042D00009688143224801601F480068C06AE062A3
:1042E00094F82C10012088401D49096808431C4996
:1042F0000860E16A01EB8101184A02EB810148681C
:10430000A0608268E260211D826851608160E16A7C
:1043100001EB8101114A02EB81026261E16A01EB6A
:1043200081010E4A52F82110491CE26A02EB820216
:104330000A4B43F8221004E0FFE707480068C06A10
:10434000E062012606E00449E06C0968C96A884217
:1043500000D20126304670BD7000002040020020CF
:104360008800002070B50646F068C4682CB940F695
:1043700082423CA140A0FBF79FFFA06AD4E907124C
:104380008A60D4E907214A6004F1180142688A4230
:1043900001D1216A41600022A2620168491E0160C8
:1043A0003948006800283DD16069D4E902128A606A
:1043B000D4E902214A60211D42688A4201D1E168A4
:1043C0004160002262610168491E016094F82C106E
:1043D000012088402D49096808432C490860E16A9A
:1043E00001EB81012A4A02EB81014868A0608268E2
:1043F000E260211D826851608160E16A01EB810108
:10440000234A02EB81026261E16A01EB8101204AE9
:1044100052F82110491CE26A02EB82021C4B43F85D
:10442000221010E01B494868E0618268226204F1B2
:104430001801826851608160164AA26211460968BB
:10444000491C116000BF1449E06A0968C96A8842C2
:1044500004D9012501201149086000E00025284603
:1044600070BD00002E2E5C4672656552544F535C41
:104470007461736B732E63004572726F723A2025FC
:10448000732C2025640D0A00AC0000208800002059
:1044900040020020E804002070000020940000206A
:1044A00070B5002400265048006828B940F6B302D1
:1044B0004EA153A0FBF700FFFEF752FA4A480068EE
:1044C000401E494908600846006800287ED15048CF
:1044D000006800287AD05BE04E48C068C468A06AD3
:1044E000D4E907128A60D4E907214A6004F118016F
:1044F00042688A4201D1216A41600022A2620168B9
:10450000491E01606069D4E902128A60D4E902217F
:104510004A60211D42688A4201D1E168416000225F
:1045200062610168491E016094F82C1001208840E6
:1045300039490968084338490860E16A01EB81019B
:10454000364A02EB81014868A0608268E260211D62
:10455000826851608160E16A01EB81012F4A02EBC0
:1045600081026261E16A01EB81012C4A52F821105B
:10457000491CE26A02EB8202284B43F822102849C8
:10458000E06A0968C96A884202D3012025490860A7
:104590002048006808B9012000E0002000289BD0D6
:1045A0000CB1FDF707FF2048056865B100BFFFF7B4
:1045B000F9FC10B101201B4908606D1E002DF6D1D9
:1045C0000020194908601748006800E008E038B189
:1045D0000126300715490860BFF34F8FBFF36F8F77
:1045E000FEF702FA304670BDAC0000202E2E5C466D
:1045F00072656552544F535C7461736B732E630024
:104600004572726F723A2025732C2025640D0A00C2
:1046100080000020E80400208800002040020020E4
:1046200070000020940000209000002004ED00E0C5
:104630001CB50024FDF7DEFA0B48006858B10B48A2
:104640001F2100234FF48072CDE9001008A10A4811
:10465000FFF762FC04462CB940F2191207A10DA025
:10466000FBF72AFE20461CBDB8000020BC0000203D
:10467000546D722053766300E32400082E2E5C46AE
:1046800072656552544F535C74696D6572732E6325
:10469000000000004572726F723A2025732C2025AD
:1046A000640D0A0080020000007800002000000075
:1046B000200000000050000000000F00DC46000851
:1046C000000000200C0100006C010008E847000811
:1046D0000C010020B48700008801000800A24A04F1
:1046E00000000000000000000102030406070809A2
:1046F00000000000000000000000000000000000BA
:1047000000000000000000000000000000000000A9
:1047100000000000E80300000000000001020304A4
:10472000010203040607080902040608000000004D
:104730000000000000000000010000000000000078
:104740000000000000000000000000000000000069
:104750000000000000000000000000000000000059
:104760000000000000000000000000000000000049
:104770000000000000000000000000000000000039
:10478000000000001F00000000000000000000000A
:104790000000000000000000000000000000000019
:1047A000AAAAAAAA00000000000000000000000061
:1047B00000000000000000000000000000000000F9
:1047C0000000000000000000000000005118000878
:1047D0003D190008602D002000000068607D002069
:0847E00000000F68000000005A
:040000050800027578
:00000001FF
